{
  "contractName": "Roulette",
  "abi": [
    {
      "constant": true,
      "inputs": [
        {
          "name": "",
          "type": "uint256"
        }
      ],
      "name": "bets",
      "outputs": [
        {
          "name": "id",
          "type": "uint256"
        },
        {
          "name": "betType",
          "type": "uint8"
        },
        {
          "name": "player",
          "type": "address"
        },
        {
          "name": "number",
          "type": "uint256"
        },
        {
          "name": "value",
          "type": "uint256"
        }
      ],
      "payable": false,
      "stateMutability": "view",
      "type": "function"
    },
    {
      "constant": true,
      "inputs": [],
      "name": "nextRoundTimestamp",
      "outputs": [
        {
          "name": "",
          "type": "uint256"
        }
      ],
      "payable": false,
      "stateMutability": "view",
      "type": "function"
    },
    {
      "inputs": [
        {
          "name": "interval",
          "type": "uint256"
        }
      ],
      "payable": true,
      "stateMutability": "payable",
      "type": "constructor"
    },
    {
      "anonymous": false,
      "inputs": [
        {
          "indexed": false,
          "name": "number",
          "type": "uint256"
        },
        {
          "indexed": false,
          "name": "nextRoundTimestamp",
          "type": "uint256"
        },
        {
          "indexed": false,
          "name": "wonAmount",
          "type": "uint256"
        }
      ],
      "name": "Resulted",
      "type": "event"
    },
    {
      "anonymous": false,
      "inputs": [
        {
          "indexed": false,
          "name": "betId",
          "type": "uint256"
        },
        {
          "indexed": false,
          "name": "player",
          "type": "address"
        },
        {
          "indexed": false,
          "name": "number",
          "type": "uint256"
        },
        {
          "indexed": false,
          "name": "value",
          "type": "uint256"
        }
      ],
      "name": "NewSingleBet",
      "type": "event"
    },
    {
      "anonymous": false,
      "inputs": [
        {
          "indexed": false,
          "name": "betId",
          "type": "uint256"
        },
        {
          "indexed": false,
          "name": "player",
          "type": "address"
        },
        {
          "indexed": false,
          "name": "value",
          "type": "uint256"
        }
      ],
      "name": "NewEvenBet",
      "type": "event"
    },
    {
      "anonymous": false,
      "inputs": [
        {
          "indexed": false,
          "name": "betId",
          "type": "uint256"
        },
        {
          "indexed": false,
          "name": "player",
          "type": "address"
        },
        {
          "indexed": false,
          "name": "value",
          "type": "uint256"
        }
      ],
      "name": "NewOddBet",
      "type": "event"
    },
    {
      "constant": true,
      "inputs": [],
      "name": "getNextRoundTimestamp",
      "outputs": [
        {
          "name": "",
          "type": "uint256"
        }
      ],
      "payable": false,
      "stateMutability": "view",
      "type": "function"
    },
    {
      "constant": true,
      "inputs": [],
      "name": "getBetsLength",
      "outputs": [
        {
          "name": "",
          "type": "uint256"
        }
      ],
      "payable": false,
      "stateMutability": "view",
      "type": "function"
    },
    {
      "constant": true,
      "inputs": [
        {
          "name": "index",
          "type": "uint256"
        }
      ],
      "name": "getBetAt",
      "outputs": [
        {
          "name": "betId",
          "type": "uint256"
        },
        {
          "name": "player",
          "type": "address"
        },
        {
          "name": "number",
          "type": "uint256"
        },
        {
          "name": "value",
          "type": "uint256"
        },
        {
          "name": "betType",
          "type": "uint256"
        }
      ],
      "payable": false,
      "stateMutability": "view",
      "type": "function"
    },
    {
      "constant": false,
      "inputs": [
        {
          "name": "number",
          "type": "uint256"
        }
      ],
      "name": "betSingle",
      "outputs": [],
      "payable": true,
      "stateMutability": "payable",
      "type": "function"
    },
    {
      "constant": false,
      "inputs": [],
      "name": "betEven",
      "outputs": [],
      "payable": true,
      "stateMutability": "payable",
      "type": "function"
    },
    {
      "constant": false,
      "inputs": [],
      "name": "betOdd",
      "outputs": [],
      "payable": true,
      "stateMutability": "payable",
      "type": "function"
    },
    {
      "constant": false,
      "inputs": [],
      "name": "launch",
      "outputs": [],
      "payable": true,
      "stateMutability": "payable",
      "type": "function"
    },
    {
      "constant": true,
      "inputs": [
        {
          "name": "betType",
          "type": "uint8"
        }
      ],
      "name": "getPayoutForType",
      "outputs": [
        {
          "name": "",
          "type": "uint256"
        }
      ],
      "payable": false,
      "stateMutability": "pure",
      "type": "function"
    }
  ],
  "bytecode": "0x60806040526040516020806110cf833981018060405281019080805190602001909291905050508060018190555033600260006101000a81548173ffffffffffffffffffffffffffffffffffffffff021916908373ffffffffffffffffffffffffffffffffffffffff160217905550600154420160008190555050611046806100896000396000f3006080604052600436106100a4576000357c0100000000000000000000000000000000000000000000000000000000900463ffffffff16806301339c21146100a957806322af00fa146100b357806326eafae91461014a5780634bb0948d1461018e578063703bf91f146101b9578063adde36bb146101d9578063b633b2ab146101e3578063cc4580c81461020e578063dc97652514610239578063f4519035146102c2575b600080fd5b6100b16102cc565b005b3480156100bf57600080fd5b506100de600480360381019080803590602001909291905050506105e3565b604051808681526020018560028111156100f457fe5b60ff1681526020018473ffffffffffffffffffffffffffffffffffffffff1673ffffffffffffffffffffffffffffffffffffffff1681526020018381526020018281526020019550505050505060405180910390f35b34801561015657600080fd5b50610178600480360381019080803560ff169060200190929190505050610655565b6040518082815260200191505060405180910390f35b34801561019a57600080fd5b506101a3610688565b6040518082815260200191505060405180910390f35b6101d76004803603810190808035906020019092919050505061068e565b005b6101e161091f565b005b3480156101ef57600080fd5b506101f8610b7e565b6040518082815260200191505060405180910390f35b34801561021a57600080fd5b50610223610b87565b6040518082815260200191505060405180910390f35b34801561024557600080fd5b5061026460048036038101908080359060200190929190505050610b94565b604051808681526020018573ffffffffffffffffffffffffffffffffffffffff1673ffffffffffffffffffffffffffffffffffffffff1681526020018481526020018381526020018281526020019550505050505060405180910390f35b6102ca610d16565b005b600080600080600080544210156102e257600080fd5b60256001430340600190048115156102f657fe5b06945060009350600092505b60048054905083101561057357600091506000600281111561032057fe5b60048481548110151561032f57fe5b906000526020600020906004020160010160009054906101000a900460ff16600281111561035957fe5b1415610391578460048481548110151561036f57fe5b906000526020600020906004020160020154141561038c57600191505b61047c565b60028081111561039d57fe5b6004848154811015156103ac57fe5b906000526020600020906004020160010160009054906101000a900460ff1660028111156103d657fe5b1415610407576000851180156103f8575060006002868115156103f557fe5b06145b1561040257600191505b61047b565b6001600281111561041457fe5b60048481548110151561042357fe5b906000526020600020906004020160010160009054906101000a900460ff16600281111561044d57fe5b141561047a5760008511801561046f5750600160028681151561046c57fe5b06145b1561047957600191505b5b5b5b8115610566576104b860048481548110151561049457fe5b906000526020600020906004020160010160009054906101000a900460ff16610655565b6004848154811015156104c757fe5b90600052602060002090600402016003015402840193506004838154811015156104ed57fe5b906000526020600020906004020160010160019054906101000a900473ffffffffffffffffffffffffffffffffffffffff1673ffffffffffffffffffffffffffffffffffffffff166108fc859081150290604051600060405180830381858888f19350505050158015610564573d6000803e3d6000fd5b505b8280600101935050610302565b6000549050600154810160008190555060006004816105929190610f76565b507f5279f1358e00764cbf4ed2f4e1858a77154618d8408d7a4937467fabffbef23b856000548660405180848152602001838152602001828152602001935050505060405180910390a15050505050565b6004818154811015156105f257fe5b90600052602060002090600402016000915090508060000154908060010160009054906101000a900460ff16908060010160019054906101000a900473ffffffffffffffffffffffffffffffffffffffff16908060020154908060030154905085565b600080600281111561066357fe5b82600281111561066f57fe5b141561067e5760239050610683565b600290505b919050565b60005481565b60008034141561069d57600080fd5b60008060008060009250600091505b600480549050821015610722576004828154811015156106c857fe5b9060005260206000209060040201600301546107106004848154811015156106ec57fe5b906000526020600020906004020160010160009054906101000a900460ff16610655565b028301925081806001019250506106ac565b3461072c85610655565b02830192503073ffffffffffffffffffffffffffffffffffffffff163190508083111561075857600080fd5b60008610806107675750602486115b1561077157600080fd5b60036000815480929190600101919050559450600460a06040519081016040528060036000815480929190600101919050558152602001600060028111156107b557fe5b81526020013373ffffffffffffffffffffffffffffffffffffffff16815260200188815260200134815250908060018154018082558091505090600182039060005260206000209060040201600090919290919091506000820151816000015560208201518160010160006101000a81548160ff0219169083600281111561083957fe5b021790555060408201518160010160016101000a81548173ffffffffffffffffffffffffffffffffffffffff021916908373ffffffffffffffffffffffffffffffffffffffff16021790555060608201518160020155608082015181600301555050507f750445a4568c66d1bb09b9681263c26e04964273a9b92f7dc2011faa7ed1252f85338834604051808581526020018473ffffffffffffffffffffffffffffffffffffffff1673ffffffffffffffffffffffffffffffffffffffff16815260200183815260200182815260200194505050505060405180910390a1505050505050565b60008034141561092e57600080fd5b60026000806000809250600091505b6004805490508210156109b35760048281548110151561095957fe5b9060005260206000209060040201600301546109a160048481548110151561097d57fe5b906000526020600020906004020160010160009054906101000a900460ff16610655565b0283019250818060010192505061093d565b346109bd85610655565b02830192503073ffffffffffffffffffffffffffffffffffffffff16319050808311156109e957600080fd5b60036000815480929190600101919050559450600460a060405190810160405280878152602001600280811115610a1c57fe5b81526020013373ffffffffffffffffffffffffffffffffffffffff1681526020016000815260200134815250908060018154018082558091505090600182039060005260206000209060040201600090919290919091506000820151816000015560208201518160010160006101000a81548160ff02191690836002811115610aa157fe5b021790555060408201518160010160016101000a81548173ffffffffffffffffffffffffffffffffffffffff021916908373ffffffffffffffffffffffffffffffffffffffff16021790555060608201518160020155608082015181600301555050507f727f4862f6185925b06a1ff056c622296fe8c2c2158a21dadac2afc9cd48f18e853334604051808481526020018373ffffffffffffffffffffffffffffffffffffffff1673ffffffffffffffffffffffffffffffffffffffff168152602001828152602001935050505060405180910390a15050505050565b60008054905090565b6000600480549050905090565b600080600080600085600480549050111515610baf57600080fd5b600280811115610bbb57fe5b600487815481101515610bca57fe5b906000526020600020906004020160010160009054906101000a900460ff166002811115610bf457fe5b1415610c035760269050610c5e565b60016002811115610c1057fe5b600487815481101515610c1f57fe5b906000526020600020906004020160010160009054906101000a900460ff166002811115610c4957fe5b1415610c585760279050610c5d565b600090505b5b600486815481101515610c6d57fe5b906000526020600020906004020160000154600487815481101515610c8e57fe5b906000526020600020906004020160010160019054906101000a900473ffffffffffffffffffffffffffffffffffffffff16600488815481101515610ccf57fe5b906000526020600020906004020160020154600489815481101515610cf057fe5b906000526020600020906004020160030154849450945094509450945091939590929450565b600080341415610d2557600080fd5b60026000806000809250600091505b600480549050821015610daa57600482815481101515610d5057fe5b906000526020600020906004020160030154610d98600484815481101515610d7457fe5b906000526020600020906004020160010160009054906101000a900460ff16610655565b02830192508180600101925050610d34565b34610db485610655565b02830192503073ffffffffffffffffffffffffffffffffffffffff1631905080831115610de057600080fd5b60036000815480929190600101919050559450600460a06040519081016040528087815260200160016002811115610e1457fe5b81526020013373ffffffffffffffffffffffffffffffffffffffff1681526020016000815260200134815250908060018154018082558091505090600182039060005260206000209060040201600090919290919091506000820151816000015560208201518160010160006101000a81548160ff02191690836002811115610e9957fe5b021790555060408201518160010160016101000a81548173ffffffffffffffffffffffffffffffffffffffff021916908373ffffffffffffffffffffffffffffffffffffffff16021790555060608201518160020155608082015181600301555050507f4bd79f00dd12ecd87494d18dd14d9c340735b2e8c213f51bd2ebb9684bb10537853334604051808481526020018373ffffffffffffffffffffffffffffffffffffffff1673ffffffffffffffffffffffffffffffffffffffff168152602001828152602001935050505060405180910390a15050505050565b815481835581811115610fa357600402816004028360005260206000209182019101610fa29190610fa8565b5b505050565b61101791905b80821115611013576000808201600090556001820160006101000a81549060ff02191690556001820160016101000a81549073ffffffffffffffffffffffffffffffffffffffff02191690556002820160009055600382016000905550600401610fae565b5090565b905600a165627a7a7230582001aee9bce64ad65cacd90eafe581db6da69abb6b28e6f17cd9677b05ac207d640029",
  "source": "pragma solidity 0.4.23;\n\n\ncontract Roulette {\n    uint public nextRoundTimestamp;\n    uint private _interval;\n    address private _owner;\n    uint private _bet_identifier;\n\n    enum BetType { Single, Odd, Even }\n\n    struct Bet {\n        uint id;\n        BetType betType;\n        address player;\n        uint number;\n        uint value;\n    }\n\n    Bet[] public bets;\n\n    event Resulted(uint number, uint nextRoundTimestamp, uint wonAmount);\n    event NewSingleBet(uint betId, address player, uint number, uint value);\n    event NewEvenBet(uint betId, address player, uint value);\n    event NewOddBet(uint betId, address player, uint value);\n\n    constructor(uint interval) public payable {\n        _interval = interval;\n        _owner = msg.sender;\n        nextRoundTimestamp = now + _interval;\n    }\n\n    function getNextRoundTimestamp() public constant returns(uint) {\n        return nextRoundTimestamp;\n    }\n\n    function getBetsLength() public constant returns(uint) {\n         return bets.length;\n    }\n\n    function getBetAt(uint index) public constant returns(uint betId, address player, uint number, uint value, uint betType) {\n        if(bets.length <= index) revert();\n        if(bets[index].betType == BetType.Even){\n            betType = 38;\n        } else if(bets[index].betType == BetType.Odd){\n            betType = 39;\n        } else{\n            betType = 0;\n        }\n        return (bets[index].id, bets[index].player, bets[index].number, bets[index].value, betType);\n    }\n\n    function betSingle(uint number) payable public transactionMustContainEther() bankMustBeAbleToPayForBetType(BetType.Single) {\n        if (number <0 || number > 36) revert();\n        uint BetId = _bet_identifier++;\n        bets.push(Bet({\n            id: _bet_identifier++,\n            betType: BetType.Single,\n            player: msg.sender,\n            number: number,\n            value: msg.value\n        }));\n        emit NewSingleBet(BetId, msg.sender, number, msg.value);\n    }\n\n    function betEven() payable public transactionMustContainEther() bankMustBeAbleToPayForBetType(BetType.Even) {\n        uint BetId = _bet_identifier++;\n        bets.push(Bet({\n            id:BetId,\n            betType: BetType.Even,\n            player: msg.sender,\n            number: 0,\n            value: msg.value\n        }));\n        emit NewEvenBet(BetId, msg.sender, msg.value);\n    }\n\n    function betOdd() payable public transactionMustContainEther() bankMustBeAbleToPayForBetType(BetType.Even) {\n        uint BetId = _bet_identifier++;\n        bets.push(Bet({\n            id: BetId,\n            betType: BetType.Odd,\n            player: msg.sender,\n            number: 0,\n            value: msg.value\n        }));\n        emit NewOddBet(BetId, msg.sender, msg.value);\n    }\n\n    function launch() public payable {\n        if (now < nextRoundTimestamp) revert();\n        uint number = uint(blockhash(block.number - 1)) % 37;\n        uint won_amount = 0;\n\n        for (uint i = 0; i < bets.length; i++) {\n            bool won = false;\n\n            if (bets[i].betType == BetType.Single) {\n                if (bets[i].number == number) {\n                    won = true;\n                }\n            } else if (bets[i].betType == BetType.Even) {\n                if (number > 0 && number % 2 == 0) {\n                    won = true;\n                }\n            } else if (bets[i].betType == BetType.Odd) {\n                if (number > 0 && number % 2 == 1) {\n                    won = true;\n                }\n            }\n\n            if (won) {\n               won_amount += bets[i].value * getPayoutForType(bets[i].betType);\n               bets[i].player.transfer(won_amount);\n            }\n        }\n\n        uint thisRoundTimestamp = nextRoundTimestamp;\n        nextRoundTimestamp = thisRoundTimestamp + _interval;\n\n        bets.length = 0;\n\n        emit Resulted(number, nextRoundTimestamp, won_amount);\n    }\n\n    function getPayoutForType(BetType betType) public pure returns(uint) {\n        if (betType == BetType.Single) return 35;\n        else return 2;\n    }\n\n    modifier transactionMustContainEther() {\n        if (msg.value == 0) revert();\n        _;\n    }\n\n    modifier bankMustBeAbleToPayForBetType(BetType betType) {\n        uint necessaryBalance = 0;\n        for (uint i = 0; i < bets.length; i++) {\n            necessaryBalance += getPayoutForType(bets[i].betType) * bets[i].value;\n        }\n        necessaryBalance += getPayoutForType(betType) * msg.value;\n        uint currentBalance = address(this).balance;\n        if (necessaryBalance > currentBalance) revert();\n        _;\n    }\n}",
  "sourcePath": "C:\\Users\\paulf\\source\\repos\\TechLabBlockchain101\\3_SmartContract\\Complete\\contracts\\Roulette.sol",
  "compiler": {
    "name": "solc",
    "version": "0.4.23+commit.124ca40d.Emscripten.clang"
  },
  "schemaVersion": "2.0.0",
  "updatedAt": "2018-04-25T00:49:43.443Z"
}